:060000000A128A11F22F22
:1008EE0064008001840A0406031900340406782C7F
:1008FE000F30831603138600C130870085018801EF
:10090E00831203138801080083120313981C902C82
:10091E00912C932C181218168C1E962C972C932C07
:10092E001A0808008312031397151715831603135D
:10093E000711313092008312031312149210121504
:10094E000800831203139D151D15831603138710BC
:10095E0031309200831203131214921012150800F4
:10096E0083160313071387173330990018151812BF
:10097E008312031398178316031398168312031307
:10098E001816831603131813831203131813080073
:10099E00043071020030031970020318D72CD82CC2
:1009AE00EF2C7018DB2CDF2C831203131716E22C9E
:1009BE0083120313171297127108F3007008F200D6
:1009CE000310F30CF20C0310F30CF20C72089500EA
:1009DE000800043071020030031970020318F82C5D
:1009EE00F92C102D7018FC2C002D831203131D16DC
:1009FE00032D831203131D129D127108F30070084C
:100A0E00F2000310F30CF20C0310F30CF20C72084C
:100A1E009B00080083120313901210169010871675
:100A2E003430F300F130F200F20B1B2DF30B1B2DC3
:100A3E00202D831203138712071C262D272D232DFD
:100A4E00101407182B2D2C2D282D10100F08F20026
:100A5E00F3017208AC007308AD0008300310AC0D42
:100A6E00AD0DFF3E031D352D0E08F200F301720889
:100A7E00AC070318AD0A7308AD072D08F1002C085A
:100A8E00F0000800F501F601700871040319502DED
:100A9E00512D882DF701F70A5F2D01300310F00D4F
:100AAE00F10DFF3E031D552D0130F4007408F707BC
:100ABE00F11F622D632D542D01300310F50DF60D2F
:100ACE00FF3E031D642D71087302031D702D700807
:100ADE007202031C732D742D7B2D7008F2027108A7
:100AEE00031CF303F302751401300310F10CF00C28
:100AFE00FF3E031D7C2D0130F702031D872D882D2F
:100B0E00632D7608F1007508F0000800F8004630F5
:100B1E007806031D932D942D9B2D01300A128A11F8
:100B2E0004260A128A11032E4C307806031DA02DBE
:100B3E00A12DA82D02300A128A1104260A128A113A
:100B4E00032E52307806031DAD2DAE2DB52D03307C
:100B5E000A128A1104260A128A11032E42307806CE
:100B6E00031DBA2DBB2DC22D05300A128A11042683
:100B7E000A128A11032E53307806031DC72DC82D75
:100B8E00CF2D04300A128A1104260A128A11032E5E
:100B9E0058307806031DD42DD52DE92D831203135D
:100BAE0085160230F7000430F600BA30F500F50B6A
:100BBE00DE2DF60BDE2DF70BDE2D00008312031358
:100BCE008512032E59307806031DEE2DEF2D032EC0
:100BDE008312031305160230F7000430F600BA3004
:100BEE00F500F50BF82DF60BF82DF70BF82D000090
:100BFE00831203130512032E0800F4007403031D61
:100C0E00092E0A2E252E8312031306168612A030E5
:100C1E00F0000030F1000A128A11CF240A128A1154
:100C2E008312031306178613A030F0000030F10074
:100C3E000A128A11F0240A128A11D02E023074067A
:100C4E00031D2A2E2B2E3D2E8312031306128612FF
:100C5E00C830F0000030F1000A128A11F0240A1296
:100C6E008A118312031306178613D02E03307406CF
:100C7E00031D422E432E532EC830F0000030F100DB
:100C8E000A128A11CF240A128A118312031306162E
:100C9E00861206138613D02E04307406031D582EAA
:100CAE00592E602E83120313061286120613861314
:100CBE00D02E05307406031D652E662E812E8312EE
:100CCE00031306128616C830F0000030F1000A1227
:100CDE008A11CF240A128A11831203130613861760
:100CEE00C830F0000030F1000A128A11F0240A1206
:100CFE008A11D02E06307406031D862E872EA22E44
:100D0E008312031306168612A030F0000030F10095
:100D1E000A128A11CF240A128A11831203130613A0
:100D2E008617A030F0000030F1000A128A11F0246C
:100D3E000A128A11D02E07307406031DA72EA82E74
:100D4E00BA2E8312031306128612A030F000003062
:100D5E00F1000A128A11F0240A128A118312031367
:100D6E0006178613D02E08307406031DBF2EC02E14
:100D7E00D02EA030F0000030F1000A128A11CF24DC
:100D8E000A128A118312031306168612061386138D
:100D9E00D02E08000A128A117F240A128A110A1212
:100DAE008A1199240A128A110A128A11A8240A1287
:100DBE008A110A128A11B7240A128A118312031396
:100DCE008715851201300A128A1104260A128A1119
:100DDE000B30FB002630FA005D30F900F90BF52ED2
:100DEE00FA0BF52EFB0BF52EFC2E831203132E0899
:100DFE00031D022F032F192F01300A128A11042608
:100E0E000A128A110530FB000F30FA00F130F9009A
:100E1E00F90B0F2FFA0B0F2FFB0B0F2F8312031350
:100E2E00AE01AE0A7D03031D1D2F1E2F2F2F0A129A
:100E3E008A118B240A128A11F9007908831203137E
:100E4E00AF002F080A128A118D250A128A111E2F41
:100E5E000A128A1111250A128A11710883120313BC
:100E6E00AB007008AA003A30F0000030F1002B08F9
:100E7E00F3002A08F2000A128A1149250A128A1171
:100E8E007008F9007908FC00831203130618502F1E
:100E9E00512F572F01300A128A1104260A128A1175
:100EAE008312031306185C2F5D2F6B2F8618602F8D
:100EBE00612F6B2F0619642F652F6B2F01300A12CD
:100ECE008A1104260A128A11831203138618702FB0
:100EDE00712F772F03300A128A1104260A128A11F3
:100EEE008312031386187C2F7D2F872F0618802FD1
:100EFE00812F872F03300A128A1104260A128A11B3
:100F0E008312031306198C2F8D2F932F02300A1282
:100F1E008A1104260A128A11831203130619982FB6
:100F2E00992FA32F06189C2F9D2FA32F02300A1244
:100F3E008A1104260A128A1183120313061CA82F83
:100F4E00A92FB72F861CAC2FAD2FB72F061DB02F94
:100F5E00B12FB72F08300A128A1104260A128A11ED
:100F6E0005307C020318BC2FBD2FEA2F0230FB0088
:100F7E000430FA00BA30F900F90BC32FFA0BC32F65
:100F8E00FB0BC32F000005307C020318CF2FD02F90
:100F9E00EA2FFD01FD0A04300A128A1104260A12F4
:100FAE008A118312031385150330FB000830FA00F3
:100FBE007730F900F90BE12FFA0BE12FFB0BE12F44
:100FCE00831203138511831203138E018F01FC2EDE
:100FDE000A128A110028FD0183132030840030305C
:100FEE000A128A1177240A128A1183010A128A11AF
:020FFE00D12EF2
:08400000FF3FFF3FFF3FFF3FC0
:02400E003A3F37
:00000001FF
